:100000000010002055020000810200008102000063
:1000100081020000810200008102000081020000D4
:1000200081020000810200008102000081020000C4
:1000300081020000810200008102000081020000B4
:100040007D010000810200008102000081020000A9
:100050008102000081020000810200008102000094
:100060008102000081020000810200008102000084
:100070008102000081020000810200008102000074
:100080008102000081020000810200008102000064
:1000900081020000810200008102000010B5054CC1
:1000A000237833B9044B13B10448AFF30080012324
:1000B000237010BD6C000020000000003803000019
:1000C00008B5064B1BB106480649AFF30080064849
:1000D000036813B1054B03B1984708BD0000000049
:1000E00038030000700000206800002000000000BD
:1000F000154B002B08BF134B9D46A3F5803A0021FA
:100100008B460F461348144A121A00F0FBF80F4BA7
:10011000002B00D098470E4B002B00D098470020B2
:10012000002104000D000D48002802D00C48AFF358
:10013000008000F0C1F82000290000F019F800F05C
:10014000A7F800BF00000800001000200000000019
:10015000000000006C00002088000020000000006B
:100160000000000080B400AFBD465DF8047B70471E
:1001700080B500AFFFF7F6FFFEE700BF80B58AB09D
:1001800000AF334B03F580531B68BB61304B03F565
:1001900080530C331B68BA691340BB612C4B9B6BBB
:1001A0007B61BA697B6913403B620023FB6149E0D4
:1001B00000237B623BE03B6A03F00103002B30D05D
:1001C000234B9B683B6101227B6A02FA03F3FB60CD
:1001D0001F4B03F580530833FA681A607B6A1B01D2
:1001E0003A691344DB68BB60BB68002B19D0BB685D
:1001F0001B7A7B60BB681B7A83F00103DAB2BB68B1
:100200001A72BB681B68002B0BD0BB681B68786A2E
:100210007A68002A0CBF00220122D1B2BA68526863
:1002200098473B6A5B083B627B6A01337B623B6AAF
:10023000002BC0D17B69DA43BB6913403B62FB6989
:100240000133FB61FB69012BB2DD2837BD4680BD60
:1002500000200C40064880470649074A074B9A424F
:10026000BEBF51F8040B42F8040BF8E7FFF740FF5C
:100270008502000044030000000000206C00002004
:10028000FEE700BF80B400AFBD465DF8047B704759
:1002900008B5074B044613B10021AFF30080054BAE
:1002A0001868836A03B19847204600F033F800BF0E
:1002B000000000003403000070B50E4B0E4D00240A
:1002C000ED1AAD101E46AC4204D056F824209047DB
:1002D0000134F8E700F020F8084D094B0024ED1A2E
:1002E000AD101E46AC4204D056F82420904701348D
:1002F000F8E770BD6000002060000020640000206E
:100300006000002002440346934202D003F8011B20
:10031000FAE77047FEE700BFF8B500BFF8BC08BCBD
:100320009E467047F8B500BFF8BC08BC9E467047B3
:0C0330004300000000000020000000005E
:08033C00B4FDFF7F0100000089
:1003440000000000000000000000000000000000A9
:100354000000000000000000000000000000000099
:100364003003000000000000000000000000000056
:100374000000000000000000000000000000000079
:100384000000000000000000000000000000000069
:100394000000000000000000000000000000000059
:0C03A400C10000009D00000000000000EF
:0400000300000255A2
:00000001FF
